{
  "contractName": "AtisiosICO",
  "abi": [
    {
      "constant": true,
      "inputs": [],
      "name": "hasClosed",
      "outputs": [
        {
          "name": "",
          "type": "bool"
        }
      ],
      "payable": false,
      "stateMutability": "view",
      "type": "function"
    },
    {
      "constant": true,
      "inputs": [],
      "name": "rate",
      "outputs": [
        {
          "name": "",
          "type": "uint256"
        }
      ],
      "payable": false,
      "stateMutability": "view",
      "type": "function"
    },
    {
      "constant": true,
      "inputs": [],
      "name": "cap",
      "outputs": [
        {
          "name": "",
          "type": "uint256"
        }
      ],
      "payable": false,
      "stateMutability": "view",
      "type": "function"
    },
    {
      "constant": true,
      "inputs": [],
      "name": "goal",
      "outputs": [
        {
          "name": "",
          "type": "uint256"
        }
      ],
      "payable": false,
      "stateMutability": "view",
      "type": "function"
    },
    {
      "constant": true,
      "inputs": [],
      "name": "weiRaised",
      "outputs": [
        {
          "name": "",
          "type": "uint256"
        }
      ],
      "payable": false,
      "stateMutability": "view",
      "type": "function"
    },
    {
      "constant": true,
      "inputs": [],
      "name": "closingTime",
      "outputs": [
        {
          "name": "",
          "type": "uint256"
        }
      ],
      "payable": false,
      "stateMutability": "view",
      "type": "function"
    },
    {
      "constant": false,
      "inputs": [],
      "name": "finalize",
      "outputs": [],
      "payable": false,
      "stateMutability": "nonpayable",
      "type": "function"
    },
    {
      "constant": true,
      "inputs": [],
      "name": "capReached",
      "outputs": [
        {
          "name": "",
          "type": "bool"
        }
      ],
      "payable": false,
      "stateMutability": "view",
      "type": "function"
    },
    {
      "constant": true,
      "inputs": [],
      "name": "wallet",
      "outputs": [
        {
          "name": "",
          "type": "address"
        }
      ],
      "payable": false,
      "stateMutability": "view",
      "type": "function"
    },
    {
      "constant": true,
      "inputs": [],
      "name": "totalTokensForSale",
      "outputs": [
        {
          "name": "",
          "type": "uint256"
        }
      ],
      "payable": false,
      "stateMutability": "view",
      "type": "function"
    },
    {
      "constant": true,
      "inputs": [],
      "name": "tokensForBounty",
      "outputs": [
        {
          "name": "",
          "type": "uint256"
        }
      ],
      "payable": false,
      "stateMutability": "view",
      "type": "function"
    },
    {
      "constant": false,
      "inputs": [],
      "name": "renounceOwnership",
      "outputs": [],
      "payable": false,
      "stateMutability": "nonpayable",
      "type": "function"
    },
    {
      "constant": true,
      "inputs": [],
      "name": "goalReached",
      "outputs": [
        {
          "name": "",
          "type": "bool"
        }
      ],
      "payable": false,
      "stateMutability": "view",
      "type": "function"
    },
    {
      "constant": true,
      "inputs": [],
      "name": "isFinalized",
      "outputs": [
        {
          "name": "",
          "type": "bool"
        }
      ],
      "payable": false,
      "stateMutability": "view",
      "type": "function"
    },
    {
      "constant": true,
      "inputs": [],
      "name": "owner",
      "outputs": [
        {
          "name": "",
          "type": "address"
        }
      ],
      "payable": false,
      "stateMutability": "view",
      "type": "function"
    },
    {
      "constant": false,
      "inputs": [],
      "name": "claimRefund",
      "outputs": [],
      "payable": false,
      "stateMutability": "nonpayable",
      "type": "function"
    },
    {
      "constant": true,
      "inputs": [],
      "name": "openingTime",
      "outputs": [
        {
          "name": "",
          "type": "uint256"
        }
      ],
      "payable": false,
      "stateMutability": "view",
      "type": "function"
    },
    {
      "constant": true,
      "inputs": [],
      "name": "totalTokensForSaleDuringPreICO",
      "outputs": [
        {
          "name": "",
          "type": "uint256"
        }
      ],
      "payable": false,
      "stateMutability": "view",
      "type": "function"
    },
    {
      "constant": true,
      "inputs": [],
      "name": "stage",
      "outputs": [
        {
          "name": "",
          "type": "uint8"
        }
      ],
      "payable": false,
      "stateMutability": "view",
      "type": "function"
    },
    {
      "constant": true,
      "inputs": [],
      "name": "maxTokens",
      "outputs": [
        {
          "name": "",
          "type": "uint256"
        }
      ],
      "payable": false,
      "stateMutability": "view",
      "type": "function"
    },
    {
      "constant": false,
      "inputs": [
        {
          "name": "_beneficiary",
          "type": "address"
        }
      ],
      "name": "buyTokens",
      "outputs": [],
      "payable": true,
      "stateMutability": "payable",
      "type": "function"
    },
    {
      "constant": false,
      "inputs": [
        {
          "name": "_newOwner",
          "type": "address"
        }
      ],
      "name": "transferOwnership",
      "outputs": [],
      "payable": false,
      "stateMutability": "nonpayable",
      "type": "function"
    },
    {
      "constant": true,
      "inputs": [],
      "name": "token",
      "outputs": [
        {
          "name": "",
          "type": "address"
        }
      ],
      "payable": false,
      "stateMutability": "view",
      "type": "function"
    },
    {
      "constant": true,
      "inputs": [],
      "name": "tokensForTeam",
      "outputs": [
        {
          "name": "",
          "type": "uint256"
        }
      ],
      "payable": false,
      "stateMutability": "view",
      "type": "function"
    },
    {
      "inputs": [
        {
          "name": "_startTime",
          "type": "uint256"
        },
        {
          "name": "_endTime",
          "type": "uint256"
        },
        {
          "name": "_rate",
          "type": "uint256"
        },
        {
          "name": "_wallet",
          "type": "address"
        },
        {
          "name": "_goal",
          "type": "uint256"
        },
        {
          "name": "_cap",
          "type": "uint256"
        }
      ],
      "payable": false,
      "stateMutability": "nonpayable",
      "type": "constructor"
    },
    {
      "payable": true,
      "stateMutability": "payable",
      "type": "fallback"
    },
    {
      "anonymous": false,
      "inputs": [
        {
          "indexed": false,
          "name": "text",
          "type": "string"
        }
      ],
      "name": "EthTransferred",
      "type": "event"
    },
    {
      "anonymous": false,
      "inputs": [
        {
          "indexed": false,
          "name": "text",
          "type": "string"
        }
      ],
      "name": "EthRefunded",
      "type": "event"
    },
    {
      "anonymous": false,
      "inputs": [],
      "name": "Finalized",
      "type": "event"
    },
    {
      "anonymous": false,
      "inputs": [
        {
          "indexed": true,
          "name": "purchaser",
          "type": "address"
        },
        {
          "indexed": true,
          "name": "beneficiary",
          "type": "address"
        },
        {
          "indexed": false,
          "name": "value",
          "type": "uint256"
        },
        {
          "indexed": false,
          "name": "amount",
          "type": "uint256"
        }
      ],
      "name": "TokenPurchase",
      "type": "event"
    },
    {
      "anonymous": false,
      "inputs": [
        {
          "indexed": true,
          "name": "previousOwner",
          "type": "address"
        }
      ],
      "name": "OwnershipRenounced",
      "type": "event"
    },
    {
      "anonymous": false,
      "inputs": [
        {
          "indexed": true,
          "name": "previousOwner",
          "type": "address"
        },
        {
          "indexed": true,
          "name": "newOwner",
          "type": "address"
        }
      ],
      "name": "OwnershipTransferred",
      "type": "event"
    },
    {
      "constant": false,
      "inputs": [
        {
          "name": "value",
          "type": "uint256"
        }
      ],
      "name": "setCrowdsaleStage",
      "outputs": [],
      "payable": false,
      "stateMutability": "nonpayable",
      "type": "function"
    },
    {
      "constant": false,
      "inputs": [
        {
          "name": "_teamFund",
          "type": "address"
        },
        {
          "name": "_bountyFund",
          "type": "address"
        }
      ],
      "name": "finish",
      "outputs": [],
      "payable": false,
      "stateMutability": "nonpayable",
      "type": "function"
    }
  ],
  "bytecode": "0x60806040526008805460ff19169055600a805460a060020a60ff02191690556b06765c793fa10079d0000000600b556b014adf4b7320334b90000000600c556a2116545850052128000000600d556b051af203a058ca9dac000000600e556aa56fa5b99019a5c8000000600f553480156200007957600080fd5b5060405160c0806200262d83398101604090815281516020830151918301516060840151608085015160a09095015192949192909190818686838787620000bf6200021f565b604051809103906000f080158015620000dc573d6000803e3d6000fd5b5060008054600160a060020a031916331781558311620000fb57600080fd5b600160a060020a03821615156200011157600080fd5b600160a060020a03811615156200012757600080fd5b60039290925560028054600160a060020a03928316600160a060020a03199182161790915560018054929093169116179055600081116200016757600080fd5b600555428210156200017857600080fd5b818110156200018657600080fd5b600691909155600755600081116200019d57600080fd5b600254600160a060020a0316620001b362000230565b600160a060020a03909116815260405190819003602001906000f080158015620001e1573d6000803e3d6000fd5b50600a8054600160a060020a031916600160a060020a0392909216919091179055600955808211156200021357600080fd5b50505050505062000241565b604051610de480620010f283390190565b6040516107578062001ed683390190565b610ea180620002516000396000f30060806040526004361061013a5763ffffffff60e060020a6000350416631515bc2b81146102a95780632c4e722e146102d2578063355274ea146102f9578063401938831461030e5780634042b66f146103235780634b6753bc146103385780634bb278f31461034d5780634f93594514610364578063521eb2731461037957806360219c7b146103aa578063644280e2146103bf578063715018a6146103d45780637d3d6522146103e95780638d4e4083146103fe5780638da5cb5b14610413578063a997f82f14610428578063b5545a3c14610440578063b7a8807c14610455578063c02aaea11461046a578063c040e6b81461047f578063dd9bc47e146104b8578063e8315742146104df578063ec8ac4d8146104f4578063f2fde38b14610508578063fc0c546a14610529578063fde83a341461053e575b60006101516003543461055390919063ffffffff16565b90506000600a5460a060020a900460ff16600181111561016d57fe5b1480156102065750600f54600154604080517f18160ddd00000000000000000000000000000000000000000000000000000000815290518492600160a060020a0316916318160ddd9160048083019260209291908290030181600087803b1580156101d757600080fd5b505af11580156101eb573d6000803e3d6000fd5b505050506040513d602081101561020157600080fd5b505101115b1561029d5760405133903480156108fc02916000818181858888f19350505050158015610237573d6000803e3d6000fd5b506040805160208082526010908201527f50726549434f204c696d697420486974000000000000000000000000000000008183015290517fc0283f9c45b2118c7ec26e4f4bf06fc486f94a186fb38dc5dff372d9cb709d379181900360600190a16102a6565b6102a633610582565b50005b3480156102b557600080fd5b506102be610624565b604080519115158252519081900360200190f35b3480156102de57600080fd5b506102e761062c565b60408051918252519081900360200190f35b34801561030557600080fd5b506102e7610632565b34801561031a57600080fd5b506102e7610638565b34801561032f57600080fd5b506102e761063e565b34801561034457600080fd5b506102e7610644565b34801561035957600080fd5b5061036261064a565b005b34801561037057600080fd5b506102be6106c4565b34801561038557600080fd5b5061038e6106cf565b60408051600160a060020a039092168252519081900360200190f35b3480156103b657600080fd5b506102e76106de565b3480156103cb57600080fd5b506102e76106e4565b3480156103e057600080fd5b506103626106ea565b3480156103f557600080fd5b506102be610756565b34801561040a57600080fd5b506102be610761565b34801561041f57600080fd5b5061038e61076a565b34801561043457600080fd5b50610362600435610779565b34801561044c57600080fd5b50610362610841565b34801561046157600080fd5b506102e76108e3565b34801561047657600080fd5b506102e76108e9565b34801561048b57600080fd5b506104946108ef565b604051808260018111156104a457fe5b60ff16815260200191505060405180910390f35b3480156104c457600080fd5b50610362600160a060020a03600435811690602435166108ff565b3480156104eb57600080fd5b506102e7610946565b610362600160a060020a0360043516610582565b34801561051457600080fd5b50610362600160a060020a036004351661094c565b34801561053557600080fd5b5061038e61096f565b34801561054a57600080fd5b506102e761097e565b60008215156105645750600061057c565b5081810281838281151561057457fe5b041461057c57fe5b92915050565b34600061058f8383610984565b610598826109ad565b6004549091506105ae908363ffffffff6109c416565b6004556105bb83826109d1565b60408051838152602081018390528151600160a060020a0386169233927f623b3804fa71d67900d064613da8f94b9617215ee90799290593e1745087ad18929081900390910190a361060d838361083d565b6106156109db565b61061f838361083d565b505050565b600754421190565b60035481565b60055481565b60095481565b60045481565b60075481565b600054600160a060020a0316331461066157600080fd5b60085460ff161561067157600080fd5b610679610624565b151561068457600080fd5b61068c610b24565b6040517f6823b073d48d6e3a7d385eeb601452d680e74bb46afe3255a7d778f3a9b1768190600090a16008805460ff19166001179055565b600554600454101590565b600254600160a060020a031681565b600e5481565b600d5481565b600054600160a060020a0316331461070157600080fd5b60008054604051600160a060020a03909116917ff8df31144d9c2f0f6b59d69b8b98abd5459d07f2742c4df920b25aae33c6482091a26000805473ffffffffffffffffffffffffffffffffffffffff19169055565b600954600454101590565b60085460ff1681565b600054600160a060020a031681565b60008054600160a060020a0316331461079157600080fd5b8115156107a0575060006107ad565b81600114156107ad575060015b600a805482919074ff0000000000000000000000000000000000000000191660a060020a8360018111156107dd57fe5b02179055506000600a5460a060020a900460ff1660018111156107fc57fe5b14156108125761080d618235610c80565b61083d565b6001600a5460a060020a900460ff16600181111561082c57fe5b141561083d5761083d6130d4610c80565b5050565b60085460ff16151561085257600080fd5b61085a610756565b1561086457600080fd5b600a54604080517f51cff8d90000000000000000000000000000000000000000000000000000000081523360048201529051600160a060020a03909216916351cff8d99160248082019260009290919082900301818387803b1580156108c957600080fd5b505af11580156108dd573d6000803e3d6000fd5b50505050565b60065481565b600f5481565b600a5460a060020a900460ff1681565b600054600160a060020a0316331461091657600080fd5b60085460ff161561092657600080fd5b61093282600c54610c85565b61093e81600d54610c85565b61083d61064a565b600b5481565b600054600160a060020a0316331461096357600080fd5b61096c81610d2b565b50565b600154600160a060020a031681565b600c5481565b600654421015801561099857506007544211155b15156109a357600080fd5b61083d8282610da8565b600061057c6003548361055390919063ffffffff16565b8181018281101561057c57fe5b61083d8282610c85565b6000600a5460a060020a900460ff1660018111156109f557fe5b1415610a9a57600254604051600160a060020a03909116903480156108fc02916000818181858888f19350505050158015610a34573d6000803e3d6000fd5b50604080516020808252601a908201527f666f7277617264696e672066756e647320746f2077616c6c65740000000000008183015290517f47af8c4076c54a76f613f82e4296a2c5e2167698d368157a82e62398393e345e9181900360600190a1610b22565b6001600a5460a060020a900460ff166001811115610ab457fe5b1415610b2257604080516020808252601a908201527f666f7277617264696e672066756e647320746f20657363726f770000000000008183015290517f47af8c4076c54a76f613f82e4296a2c5e2167698d368157a82e62398393e345e9181900360600190a1610b22610dd3565b565b610b2c610756565b15610c0c57600a60009054906101000a9004600160a060020a0316600160a060020a03166343d726d66040518163ffffffff1660e060020a028152600401600060405180830381600087803b158015610b8457600080fd5b505af1158015610b98573d6000803e3d6000fd5b50505050600a60009054906101000a9004600160a060020a0316600160a060020a0316639af6549a6040518163ffffffff1660e060020a028152600401600060405180830381600087803b158015610bef57600080fd5b505af1158015610c03573d6000803e3d6000fd5b50505050610c78565b600a60009054906101000a9004600160a060020a0316600160a060020a0316638c52dc416040518163ffffffff1660e060020a028152600401600060405180830381600087803b158015610c5f57600080fd5b505af1158015610c73573d6000803e3d6000fd5b505050505b610b22610b22565b600355565b600154604080517f40c10f19000000000000000000000000000000000000000000000000000000008152600160a060020a03858116600483015260248201859052915191909216916340c10f199160448083019260209291908290030181600087803b158015610cf457600080fd5b505af1158015610d08573d6000803e3d6000fd5b505050506040513d6020811015610d1e57600080fd5b5051151561083d57600080fd5b600160a060020a0381161515610d4057600080fd5b60008054604051600160a060020a03808516939216917f8be0079c531659141344cd1fd0a4f28419497f9722a3daafe3b4186f6b6457e091a36000805473ffffffffffffffffffffffffffffffffffffffff1916600160a060020a0392909216919091179055565b610db28282610e54565b600554600454610dc8908363ffffffff6109c416565b111561083d57600080fd5b600a54604080517ff340fa010000000000000000000000000000000000000000000000000000000081523360048201529051600160a060020a039092169163f340fa01913491602480830192600092919082900301818588803b158015610e3957600080fd5b505af1158015610e4d573d6000803e3d6000fd5b5050505050565b600160a060020a0382161515610e6957600080fd5b80151561083d57600080fd00a165627a7a72305820ab8b4c24f82068d7acc0b002223aeb7d33ac54cd2f4bb9d72fe35cf8bb16918600296003805460a060020a60ff021916905560c0604052600460808190527f417469730000000000000000000000000000000000000000000000000000000060a090815261004c9190816100b6565b506040805180820190915260048082527f41544953000000000000000000000000000000000000000000000000000000006020909201918252610091916005916100b6565b506006805460ff1916601217905560038054600160a060020a03191633179055610151565b828054600181600116156101000203166002900490600052602060002090601f016020900481019282601f106100f757805160ff1916838001178555610124565b82800160010185558215610124579182015b82811115610124578251825591602001919060010190610109565b50610130929150610134565b5090565b61014e91905b80821115610130576000815560010161013a565b90565b610c84806101606000396000f3006080604052600436106100f05763ffffffff7c010000000000000000000000000000000000000000000000000000000060003504166305d2035b81146100f557806306fdde031461011e578063095ea7b3146101a857806318160ddd146101cc57806323b872dd146101f3578063313ce5671461021d57806340c10f1914610248578063661884631461026c57806370a0823114610290578063715018a6146102b15780637d64bcb4146102c85780638da5cb5b146102dd57806395d89b411461030e578063a9059cbb14610323578063d73dd62314610347578063dd62ed3e1461036b578063f2fde38b14610392575b600080fd5b34801561010157600080fd5b5061010a6103b3565b604080519115158252519081900360200190f35b34801561012a57600080fd5b506101336103d4565b6040805160208082528351818301528351919283929083019185019080838360005b8381101561016d578181015183820152602001610155565b50505050905090810190601f16801561019a5780820380516001836020036101000a031916815260200191505b509250505060405180910390f35b3480156101b457600080fd5b5061010a600160a060020a0360043516602435610462565b3480156101d857600080fd5b506101e16104c8565b60408051918252519081900360200190f35b3480156101ff57600080fd5b5061010a600160a060020a03600435811690602435166044356104ce565b34801561022957600080fd5b50610232610643565b6040805160ff9092168252519081900360200190f35b34801561025457600080fd5b5061010a600160a060020a036004351660243561064c565b34801561027857600080fd5b5061010a600160a060020a0360043516602435610767565b34801561029c57600080fd5b506101e1600160a060020a0360043516610856565b3480156102bd57600080fd5b506102c6610871565b005b3480156102d457600080fd5b5061010a6108df565b3480156102e957600080fd5b506102f2610985565b60408051600160a060020a039092168252519081900360200190f35b34801561031a57600080fd5b50610133610994565b34801561032f57600080fd5b5061010a600160a060020a03600435166024356109ef565b34801561035357600080fd5b5061010a600160a060020a0360043516602435610ace565b34801561037757600080fd5b506101e1600160a060020a0360043581169060243516610b67565b34801561039e57600080fd5b506102c6600160a060020a0360043516610b92565b60035474010000000000000000000000000000000000000000900460ff1681565b6004805460408051602060026001851615610100026000190190941693909304601f8101849004840282018401909252818152929183018282801561045a5780601f1061042f5761010080835404028352916020019161045a565b820191906000526020600020905b81548152906001019060200180831161043d57829003601f168201915b505050505081565b336000818152600260209081526040808320600160a060020a038716808552908352818420869055815186815291519394909390927f8c5be1e5ebec7d5bd14f71427d1e84f3dd0314c0f7b2291e5b200ac8c7c3b925928290030190a350600192915050565b60015490565b600160a060020a0383166000908152602081905260408120548211156104f357600080fd5b600160a060020a038416600090815260026020908152604080832033845290915290205482111561052357600080fd5b600160a060020a038316151561053857600080fd5b600160a060020a038416600090815260208190526040902054610561908363ffffffff610bb516565b600160a060020a038086166000908152602081905260408082209390935590851681522054610596908363ffffffff610bc716565b600160a060020a038085166000908152602081815260408083209490945591871681526002825282812033825290915220546105d8908363ffffffff610bb516565b600160a060020a03808616600081815260026020908152604080832033845282529182902094909455805186815290519287169391927fddf252ad1be2c89b69c2b068fc378daa952ba7f163c4a11628f55a4df523b3ef929181900390910190a35060019392505050565b60065460ff1681565b600354600090600160a060020a0316331461066657600080fd5b60035474010000000000000000000000000000000000000000900460ff161561068e57600080fd5b6001546106a1908363ffffffff610bc716565b600155600160a060020a0383166000908152602081905260409020546106cd908363ffffffff610bc716565b600160a060020a03841660008181526020818152604091829020939093558051858152905191927f0f6798a560793a54c3bcfe86a93cde1e73087d944c0ea20544137d412139688592918290030190a2604080518381529051600160a060020a038516916000917fddf252ad1be2c89b69c2b068fc378daa952ba7f163c4a11628f55a4df523b3ef9181900360200190a350600192915050565b336000908152600260209081526040808320600160a060020a03861684529091528120548083106107bb57336000908152600260209081526040808320600160a060020a03881684529091528120556107f0565b6107cb818463ffffffff610bb516565b336000908152600260209081526040808320600160a060020a03891684529091529020555b336000818152600260209081526040808320600160a060020a0389168085529083529281902054815190815290519293927f8c5be1e5ebec7d5bd14f71427d1e84f3dd0314c0f7b2291e5b200ac8c7c3b925929181900390910190a35060019392505050565b600160a060020a031660009081526020819052604090205490565b600354600160a060020a0316331461088857600080fd5b600354604051600160a060020a03909116907ff8df31144d9c2f0f6b59d69b8b98abd5459d07f2742c4df920b25aae33c6482090600090a26003805473ffffffffffffffffffffffffffffffffffffffff19169055565b600354600090600160a060020a031633146108f957600080fd5b60035474010000000000000000000000000000000000000000900460ff161561092157600080fd5b6003805474ff00000000000000000000000000000000000000001916740100000000000000000000000000000000000000001790556040517fae5184fba832cb2b1f702aca6117b8d265eaf03ad33eb133f19dde0f5920fa0890600090a150600190565b600354600160a060020a031681565b6005805460408051602060026001851615610100026000190190941693909304601f8101849004840282018401909252818152929183018282801561045a5780601f1061042f5761010080835404028352916020019161045a565b33600090815260208190526040812054821115610a0b57600080fd5b600160a060020a0383161515610a2057600080fd5b33600090815260208190526040902054610a40908363ffffffff610bb516565b3360009081526020819052604080822092909255600160a060020a03851681522054610a72908363ffffffff610bc716565b600160a060020a038416600081815260208181526040918290209390935580518581529051919233927fddf252ad1be2c89b69c2b068fc378daa952ba7f163c4a11628f55a4df523b3ef9281900390910190a350600192915050565b336000908152600260209081526040808320600160a060020a0386168452909152812054610b02908363ffffffff610bc716565b336000818152600260209081526040808320600160a060020a0389168085529083529281902085905580519485525191937f8c5be1e5ebec7d5bd14f71427d1e84f3dd0314c0f7b2291e5b200ac8c7c3b925929081900390910190a350600192915050565b600160a060020a03918216600090815260026020908152604080832093909416825291909152205490565b600354600160a060020a03163314610ba957600080fd5b610bb281610bda565b50565b600082821115610bc157fe5b50900390565b81810182811015610bd457fe5b92915050565b600160a060020a0381161515610bef57600080fd5b600354604051600160a060020a038084169216907f8be0079c531659141344cd1fd0a4f28419497f9722a3daafe3b4186f6b6457e090600090a36003805473ffffffffffffffffffffffffffffffffffffffff1916600160a060020a03929092169190911790555600a165627a7a723058208c13dfb5b3441b8743c3a2ebda4e0888adcd712c543efe613f7f96d4692e7faf0029608060405234801561001057600080fd5b50604051602080610757833981016040525160008054600160a060020a03191633179055600160a060020a038116151561004957600080fd5b6002805460ff19600160a060020a03939093166101000261010060a860020a0319909116179190911690556106d4806100836000396000f3006080604052600436106100b95763ffffffff7c010000000000000000000000000000000000000000000000000000000060003504166338af3eed81146100be57806343d726d6146100ef57806351cff8d914610106578063685ca19414610127578063715018a61461015c5780638c52dc41146101715780638da5cb5b146101865780639af6549a1461019b578063c19d93fb146101b0578063e3a9db1a146101e9578063f2fde38b1461021c578063f340fa011461023d575b600080fd5b3480156100ca57600080fd5b506100d3610251565b60408051600160a060020a039092168252519081900360200190f35b3480156100fb57600080fd5b50610104610265565b005b34801561011257600080fd5b50610104600160a060020a03600435166102d0565b34801561013357600080fd5b50610148600160a060020a03600435166102f0565b604080519115158252519081900360200190f35b34801561016857600080fd5b5061010461030c565b34801561017d57600080fd5b50610104610378565b34801561019257600080fd5b506100d36103e4565b3480156101a757600080fd5b506101046103f3565b3480156101bc57600080fd5b506101c561044f565b604051808260028111156101d557fe5b60ff16815260200191505060405180910390f35b3480156101f557600080fd5b5061020a600160a060020a0360043516610458565b60408051918252519081900360200190f35b34801561022857600080fd5b50610104600160a060020a0360043516610473565b610104600160a060020a0360043516610493565b6002546101009004600160a060020a031681565b600054600160a060020a0316331461027c57600080fd5b60006002805460ff169081111561028f57fe5b1461029957600080fd5b6002805460ff1916811790556040517f1cdde67b72a90f19919ac732a437ac2f7a10fc128d28c2a6e525d89ce5cd9d3a90600090a1565b6102d9816102f0565b15156102e457600080fd5b6102ed816104b9565b50565b600060016002805460ff169081111561030557fe5b1492915050565b600054600160a060020a0316331461032357600080fd5b60008054604051600160a060020a03909116917ff8df31144d9c2f0f6b59d69b8b98abd5459d07f2742c4df920b25aae33c6482091a26000805473ffffffffffffffffffffffffffffffffffffffff19169055565b600054600160a060020a0316331461038f57600080fd5b60006002805460ff16908111156103a257fe5b146103ac57600080fd5b6002805460ff191660011790556040517f599d8e5a83cffb867d051598c4d70e805d59802d8081c1c7d6dffc5b6aca2b8990600090a1565b600054600160a060020a031681565b6002805460ff168181111561040457fe5b1461040e57600080fd5b600254604051600160a060020a036101009092049190911690303180156108fc02916000818181858888f193505050501580156102ed573d6000803e3d6000fd5b60025460ff1681565b600160a060020a031660009081526001602052604090205490565b600054600160a060020a0316331461048a57600080fd5b6102ed8161057e565b60006002805460ff16908111156104a657fe5b146104b057600080fd5b6102ed816105fb565b60008054600160a060020a031633146104d157600080fd5b50600160a060020a03811660009081526001602052604090205430318111156104f657fe5b600160a060020a0382166000818152600160205260408082208290555183156108fc0291849190818181858888f1935050505015801561053a573d6000803e3d6000fd5b50604080518281529051600160a060020a038416917f7084f5476618d8e60b11ef0d7d3f06914655adb8793e28ff7f018d4c76d505d5919081900360200190a25050565b600160a060020a038116151561059357600080fd5b60008054604051600160a060020a03808516939216917f8be0079c531659141344cd1fd0a4f28419497f9722a3daafe3b4186f6b6457e091a36000805473ffffffffffffffffffffffffffffffffffffffff1916600160a060020a0392909216919091179055565b60008054600160a060020a0316331461061357600080fd5b50600160a060020a038116600090815260016020526040902054349061063f908263ffffffff61069516565b600160a060020a038316600081815260016020908152604091829020939093558051848152905191927f2da466a7b24304f47e87fa2e1e5a81b9831ce54fec19055ce277ca2f39ba42c492918290030190a25050565b818101828110156106a257fe5b929150505600a165627a7a72305820bb4eab05271e08bafcfc727cee8f4fbc9e4a46ac4822c60cf7d5efe508e8ee1c0029",
  "source": "pragma solidity ^0.4.24;\n\nimport './Atisios.sol';\nimport 'zeppelin-solidity/contracts/crowdsale/distribution/FinalizableCrowdsale.sol';\nimport 'zeppelin-solidity/contracts/crowdsale/distribution/RefundableCrowdsale.sol';\nimport 'zeppelin-solidity/contracts/crowdsale/emission/MintedCrowdsale.sol';\nimport 'zeppelin-solidity/contracts/crowdsale/validation/CappedCrowdsale.sol';\nimport 'zeppelin-solidity/contracts/crowdsale/validation/TimedCrowdsale.sol';\n\ncontract AtisiosICO is CappedCrowdsale, RefundableCrowdsale, MintedCrowdsale {\n\n  // ICO Stage\n  // ============\n  enum CrowdsaleStage { PreICO, ICO }\n  CrowdsaleStage public stage = CrowdsaleStage.PreICO; // By default it's Pre Sale\n  // =============\n\n  // Token Distribution\n  // =============================\n  uint256 public maxTokens = 2000000000000000000000000000; // 2 000 000 000 ATIS (18 decimals)\n  uint256 public tokensForTeam = 400000000000000000000000000; // 400 000 000 (20% of 2 000 000 000)\n  uint256 public tokensForBounty = 40000000000000000000000000; // 40 000 000 (2% of 2 000 000 000)\n  uint256 public totalTokensForSale = 1580000000000000000000000000; // 1 580 000 000 ATIS (18 decimals)\n  uint256 public totalTokensForSaleDuringPreICO = 200000000000000000000000000; // 200 000 000 / 1 380 000 000\n  // ==============================\n\n  event EthTransferred(string text);\n  event EthRefunded(string text);\n\n  constructor(\n    uint256 _startTime,\n    uint256 _endTime,\n    uint256 _rate,\n    address _wallet,\n    uint256 _goal,\n    uint256 _cap\n  ) TimedCrowdsale(_startTime, _endTime) CappedCrowdsale(_cap) FinalizableCrowdsale() RefundableCrowdsale(_goal) Crowdsale(_rate, _wallet, new AtisiosToken()) public {\n      require(_goal <= _cap);\n  }\n\n  function createTokenContract() internal returns (MintableToken) {\n    return new AtisiosToken(); // Deploys the ERC20 token. Automatically called when crowdsale contract is deployed\n  }\n\n  // Change Crowdsale Stage. Available Options: PreICO, ICO\n  function setCrowdsaleStage(uint value) public onlyOwner {\n\n      CrowdsaleStage _stage;\n\n      if (uint(CrowdsaleStage.PreICO) == value) {\n        _stage = CrowdsaleStage.PreICO;\n      } else if (uint(CrowdsaleStage.ICO) == value) {\n        _stage = CrowdsaleStage.ICO;\n      }\n\n      stage = _stage;\n\n      if (stage == CrowdsaleStage.PreICO) {\n        setCurrentRate(33333); // 0.00003 ethers per unit (30000000000000 wei)\n      } else if (stage == CrowdsaleStage.ICO) {\n        setCurrentRate(12500); // 0.00008 ethers per unit (80000000000000 wei)\n      }\n  }\n\n  // Change the current rate\n  function setCurrentRate(uint256 _rate) private {\n      rate = _rate;\n  }\n\n  function () external payable {\n      uint256 tokensThatWillBeMintedAfterPurchase = msg.value.mul(rate);\n      if ((stage == CrowdsaleStage.PreICO) && (token.totalSupply() + tokensThatWillBeMintedAfterPurchase > totalTokensForSaleDuringPreICO)) {\n        msg.sender.transfer(msg.value); // Refund them\n        emit EthRefunded(\"PreICO Limit Hit\"); // Pre-sale hardcap reached\n        return;\n      }\n\n      buyTokens(msg.sender);\n  }\n\n  function _forwardFunds() internal {\n      if (stage == CrowdsaleStage.PreICO) {\n          wallet.transfer(msg.value);\n          emit EthTransferred(\"forwarding funds to wallet\");\n      } else if (stage == CrowdsaleStage.ICO) {\n          emit EthTransferred(\"forwarding funds to escrow\");\n          super._forwardFunds();\n      }\n  }\n\n  // What's unsold is burnt\n  function finish(address _teamFund, address _bountyFund) public onlyOwner {\n      require(!isFinalized);\n\n      super._deliverTokens(_teamFund,tokensForTeam);\n      super._deliverTokens(_bountyFund,tokensForBounty);\n\n      super.finalize();\n  }\n}\n",
  "sourcePath": "/Users/slals/projects/atisios/ico/contracts/ICO.sol",
  "compiler": {
    "name": "solc",
    "version": "0.4.24+commit.e67f0147.Emscripten.clang"
  },
  "schemaVersion": "2.0.1",
  "updatedAt": "2018-08-29T16:03:59.198Z"
}